{
  "_format": "hh-sol-artifact-1",
  "contractName": "Budget",
  "sourceName": "contracts/Budget.sol",
  "abi": [
    {
      "inputs": [],
      "stateMutability": "nonpayable",
      "type": "constructor"
    },
    {
      "anonymous": false,
      "inputs": [
        {
          "indexed": true,
          "internalType": "uint256",
          "name": "projectId",
          "type": "uint256"
        },
        {
          "indexed": false,
          "internalType": "uint256",
          "name": "start",
          "type": "uint256"
        },
        {
          "indexed": false,
          "internalType": "uint256",
          "name": "end",
          "type": "uint256"
        }
      ],
      "name": "AddTimeline",
      "type": "event"
    },
    {
      "anonymous": false,
      "inputs": [
        {
          "indexed": false,
          "internalType": "address",
          "name": "from",
          "type": "address"
        },
        {
          "indexed": false,
          "internalType": "uint256",
          "name": "amount",
          "type": "uint256"
        }
      ],
      "name": "FundsReceived",
      "type": "event"
    },
    {
      "anonymous": false,
      "inputs": [
        {
          "indexed": true,
          "internalType": "uint256",
          "name": "projectId",
          "type": "uint256"
        },
        {
          "indexed": false,
          "internalType": "uint256",
          "name": "phaseIndex",
          "type": "uint256"
        },
        {
          "indexed": false,
          "internalType": "string",
          "name": "evidenceCID",
          "type": "string"
        }
      ],
      "name": "PhaseProofSubmitted",
      "type": "event"
    },
    {
      "anonymous": false,
      "inputs": [
        {
          "indexed": true,
          "internalType": "uint256",
          "name": "projectId",
          "type": "uint256"
        },
        {
          "indexed": false,
          "internalType": "uint256",
          "name": "phaseIndex",
          "type": "uint256"
        },
        {
          "indexed": false,
          "internalType": "uint256",
          "name": "amount",
          "type": "uint256"
        },
        {
          "indexed": false,
          "internalType": "address",
          "name": "contractor",
          "type": "address"
        }
      ],
      "name": "PhaseReleased",
      "type": "event"
    },
    {
      "anonymous": false,
      "inputs": [
        {
          "indexed": true,
          "internalType": "uint256",
          "name": "projectId",
          "type": "uint256"
        },
        {
          "indexed": false,
          "internalType": "string",
          "name": "name",
          "type": "string"
        },
        {
          "indexed": false,
          "internalType": "address",
          "name": "contractor",
          "type": "address"
        }
      ],
      "name": "ProjectCreated",
      "type": "event"
    },
    {
      "inputs": [
        {
          "internalType": "string",
          "name": "_name",
          "type": "string"
        },
        {
          "internalType": "address payable",
          "name": "_contractor",
          "type": "address"
        },
        {
          "internalType": "uint256",
          "name": "_startTime",
          "type": "uint256"
        },
        {
          "internalType": "uint256",
          "name": "_endTime",
          "type": "uint256"
        },
        {
          "internalType": "string[]",
          "name": "_phaseNames",
          "type": "string[]"
        },
        {
          "internalType": "uint256[]",
          "name": "_phaseBudgets",
          "type": "uint256[]"
        }
      ],
      "name": "createProject",
      "outputs": [],
      "stateMutability": "payable",
      "type": "function"
    },
    {
      "inputs": [],
      "name": "getBalance",
      "outputs": [
        {
          "internalType": "uint256",
          "name": "",
          "type": "uint256"
        }
      ],
      "stateMutability": "view",
      "type": "function"
    },
    {
      "inputs": [
        {
          "internalType": "uint256",
          "name": "_projectId",
          "type": "uint256"
        }
      ],
      "name": "getPhases",
      "outputs": [
        {
          "internalType": "string[]",
          "name": "names",
          "type": "string[]"
        },
        {
          "internalType": "uint256[]",
          "name": "budgets",
          "type": "uint256[]"
        },
        {
          "internalType": "string[]",
          "name": "evidenceCIDs",
          "type": "string[]"
        },
        {
          "internalType": "enum Budget.PhaseStatus[]",
          "name": "statuses",
          "type": "uint8[]"
        }
      ],
      "stateMutability": "view",
      "type": "function"
    },
    {
      "inputs": [],
      "name": "owner",
      "outputs": [
        {
          "internalType": "address",
          "name": "",
          "type": "address"
        }
      ],
      "stateMutability": "view",
      "type": "function"
    },
    {
      "inputs": [],
      "name": "projectCount",
      "outputs": [
        {
          "internalType": "uint256",
          "name": "",
          "type": "uint256"
        }
      ],
      "stateMutability": "view",
      "type": "function"
    },
    {
      "inputs": [
        {
          "internalType": "uint256",
          "name": "",
          "type": "uint256"
        }
      ],
      "name": "projects",
      "outputs": [
        {
          "internalType": "uint256",
          "name": "id",
          "type": "uint256"
        },
        {
          "internalType": "string",
          "name": "name",
          "type": "string"
        },
        {
          "internalType": "address payable",
          "name": "contractor",
          "type": "address"
        },
        {
          "internalType": "uint256",
          "name": "startTime",
          "type": "uint256"
        },
        {
          "internalType": "uint256",
          "name": "endTime",
          "type": "uint256"
        },
        {
          "internalType": "uint256",
          "name": "currentPhase",
          "type": "uint256"
        },
        {
          "internalType": "bool",
          "name": "exists",
          "type": "bool"
        }
      ],
      "stateMutability": "view",
      "type": "function"
    },
    {
      "inputs": [
        {
          "internalType": "uint256",
          "name": "_projectId",
          "type": "uint256"
        }
      ],
      "name": "releasePhase",
      "outputs": [],
      "stateMutability": "nonpayable",
      "type": "function"
    },
    {
      "inputs": [
        {
          "internalType": "uint256",
          "name": "_projectId",
          "type": "uint256"
        },
        {
          "internalType": "string",
          "name": "_evidenceCID",
          "type": "string"
        }
      ],
      "name": "submitPhaseProof",
      "outputs": [],
      "stateMutability": "nonpayable",
      "type": "function"
    },
    {
      "stateMutability": "payable",
      "type": "receive"
    }
  ],
  "bytecode": "0x6080604052348015600f57600080fd5b50336000806101000a81548173ffffffffffffffffffffffffffffffffffffffff021916908373ffffffffffffffffffffffffffffffffffffffff1602179055506128388061005f6000396000f3fe60806040526004361061007f5760003560e01c80638da5cb5b1161004e5780638da5cb5b14610186578063931e7158146101b1578063b2964997146101da578063dbe2a58b1461021a576100bf565b8063107046bd146100c457806312065fe01461010757806313dd9ab91461013257806336fbad261461015b576100bf565b366100bf577f8e47b87b0ef542cdfa1659c551d88bad38aa7f452d2bbb349ab7530dfec8be8f33346040516100b59291906112e9565b60405180910390a1005b600080fd5b3480156100d057600080fd5b506100eb60048036038101906100e69190611352565b610236565b6040516100fe979695949392919061144b565b60405180910390f35b34801561011357600080fd5b5061011c61032d565b60405161012991906114c1565b60405180910390f35b34801561013e57600080fd5b5061015960048036038101906101549190611611565b610335565b005b34801561016757600080fd5b506101706105a3565b60405161017d91906114c1565b60405180910390f35b34801561019257600080fd5b5061019b6105a9565b6040516101a8919061166d565b60405180910390f35b3480156101bd57600080fd5b506101d860048036038101906101d39190611352565b6105cd565b005b3480156101e657600080fd5b5061020160048036038101906101fc9190611352565b610a11565b6040516102119493929190611978565b60405180910390f35b610234600480360381019061022f9190611bae565b610e40565b005b600160205280600052604060002060009150905080600001549080600101805461025f90611cbe565b80601f016020809104026020016040519081016040528092919081815260200182805461028b90611cbe565b80156102d85780601f106102ad576101008083540402835291602001916102d8565b820191906000526020600020905b8154815290600101906020018083116102bb57829003601f168201915b5050505050908060020160009054906101000a900473ffffffffffffffffffffffffffffffffffffffff16908060030154908060040154908060050154908060060160009054906101000a900460ff16905087565b600047905090565b60006001600084815260200190815260200160002090508060060160009054906101000a900460ff1661039d576040517f08c379a000000000000000000000000000000000000000000000000000000000815260040161039490611d3b565b60405180910390fd5b8060020160009054906101000a900473ffffffffffffffffffffffffffffffffffffffff1673ffffffffffffffffffffffffffffffffffffffff163373ffffffffffffffffffffffffffffffffffffffff161461042f576040517f08c379a000000000000000000000000000000000000000000000000000000000815260040161042690611dcd565b60405180910390fd5b806007018054905081600501541061047c576040517f08c379a000000000000000000000000000000000000000000000000000000000815260040161047390611e39565b60405180910390fd5b60008160070182600501548154811061049857610497611e59565b5b90600052602060002090600402019050600060028111156104bc576104bb61187e565b5b8160030160009054906101000a900460ff1660028111156104e0576104df61187e565b5b14610520576040517f08c379a000000000000000000000000000000000000000000000000000000000815260040161051790611efa565b60405180910390fd5b8281600201908161053191906120c6565b5060018160030160006101000a81548160ff0219169083600281111561055a5761055961187e565b5b0217905550837f84fcc2b1cae57ee4a1d97ff6d33b106454f9cb819092b334df127e5c708910ff836005015485604051610595929190612198565b60405180910390a250505050565b60025481565b60008054906101000a900473ffffffffffffffffffffffffffffffffffffffff1681565b60008054906101000a900473ffffffffffffffffffffffffffffffffffffffff1673ffffffffffffffffffffffffffffffffffffffff163373ffffffffffffffffffffffffffffffffffffffff161461065b576040517f08c379a00000000000000000000000000000000000000000000000000000000081526004016106529061223a565b60405180910390fd5b600060149054906101000a900460ff16156106ab576040517f08c379a00000000000000000000000000000000000000000000000000000000081526004016106a2906122a6565b60405180910390fd5b6001600060146101000a81548160ff02191690831515021790555060006001600083815260200190815260200160002090508060060160009054906101000a900460ff1661072e576040517f08c379a000000000000000000000000000000000000000000000000000000000815260040161072590611d3b565b60405180910390fd5b806007018054905081600501541061077b576040517f08c379a000000000000000000000000000000000000000000000000000000000815260040161077290611e39565b60405180910390fd5b60008160070182600501548154811061079757610796611e59565b5b90600052602060002090600402019050600160028111156107bb576107ba61187e565b5b8160030160009054906101000a900460ff1660028111156107df576107de61187e565b5b1461081f576040517f08c379a000000000000000000000000000000000000000000000000000000000815260040161081690612338565b60405180910390fd5b8060010154471015610866576040517f08c379a000000000000000000000000000000000000000000000000000000000815260040161085d906123a4565b60405180910390fd5b60028160030160006101000a81548160ff0219169083600281111561088e5761088d61187e565b5b02179055506000816001015490506000836005015490508360050160008154809291906108ba906123f3565b919050555060008460020160009054906101000a900473ffffffffffffffffffffffffffffffffffffffff1673ffffffffffffffffffffffffffffffffffffffff16836040516109099061246c565b60006040518083038185875af1925050503d8060008114610946576040519150601f19603f3d011682016040523d82523d6000602084013e61094b565b606091505b505090508061098f576040517f08c379a0000000000000000000000000000000000000000000000000000000008152600401610986906124cd565b60405180910390fd5b857ffd52fa80943beea282b27b7cd0d4368bfe8637fb71347bcb60edb5ad87b1d3e583858860020160009054906101000a900473ffffffffffffffffffffffffffffffffffffffff166040516109e793929190612542565b60405180910390a2505050505060008060146101000a81548160ff02191690831515021790555050565b60608060608060006001600087815260200190815260200160002090508060060160009054906101000a900460ff16610a7f576040517f08c379a0000000000000000000000000000000000000000000000000000000008152600401610a7690611d3b565b60405180910390fd5b6000816007018054905090508067ffffffffffffffff811115610aa557610aa46114e6565b5b604051908082528060200260200182016040528015610ad857816020015b6060815260200190600190039081610ac35790505b5095508067ffffffffffffffff811115610af557610af46114e6565b5b604051908082528060200260200182016040528015610b235781602001602082028036833780820191505090505b5094508067ffffffffffffffff811115610b4057610b3f6114e6565b5b604051908082528060200260200182016040528015610b7357816020015b6060815260200190600190039081610b5e5790505b5093508067ffffffffffffffff811115610b9057610b8f6114e6565b5b604051908082528060200260200182016040528015610bbe5781602001602082028036833780820191505090505b50925060005b81811015610e3657826007018181548110610be257610be1611e59565b5b90600052602060002090600402016000018054610bfe90611cbe565b80601f0160208091040260200160405190810160405280929190818152602001828054610c2a90611cbe565b8015610c775780601f10610c4c57610100808354040283529160200191610c77565b820191906000526020600020905b815481529060010190602001808311610c5a57829003601f168201915b5050505050878281518110610c8f57610c8e611e59565b5b6020026020010181905250826007018181548110610cb057610caf611e59565b5b906000526020600020906004020160010154868281518110610cd557610cd4611e59565b5b602002602001018181525050826007018181548110610cf757610cf6611e59565b5b90600052602060002090600402016002018054610d1390611cbe565b80601f0160208091040260200160405190810160405280929190818152602001828054610d3f90611cbe565b8015610d8c5780601f10610d6157610100808354040283529160200191610d8c565b820191906000526020600020905b815481529060010190602001808311610d6f57829003601f168201915b5050505050858281518110610da457610da3611e59565b5b6020026020010181905250826007018181548110610dc557610dc4611e59565b5b906000526020600020906004020160030160009054906101000a900460ff16848281518110610df757610df6611e59565b5b60200260200101906002811115610e1157610e1061187e565b5b90816002811115610e2557610e2461187e565b5b815250508080600101915050610bc4565b5050509193509193565b60008054906101000a900473ffffffffffffffffffffffffffffffffffffffff1673ffffffffffffffffffffffffffffffffffffffff163373ffffffffffffffffffffffffffffffffffffffff1614610ece576040517f08c379a0000000000000000000000000000000000000000000000000000000008152600401610ec59061223a565b60405180910390fd5b8051825114610f12576040517f08c379a0000000000000000000000000000000000000000000000000000000008152600401610f09906125eb565b60405180910390fd5b6000825111610f56576040517f08c379a0000000000000000000000000000000000000000000000000000000008152600401610f4d90612657565b60405180910390fd5b828410610f98576040517f08c379a0000000000000000000000000000000000000000000000000000000008152600401610f8f906126c3565b60405180910390fd5b6000805b8251811015610fda57828181518110610fb857610fb7611e59565b5b602002602001015182610fcb91906126e3565b91508080600101915050610f9c565b5080341461101d576040517f08c379a000000000000000000000000000000000000000000000000000000000815260040161101490612789565b60405180910390fd5b60026000815480929190611030906123f3565b91905055506000600160006002548152602001908152602001600020905060025481600001819055508781600101908161106a91906120c6565b50868160020160006101000a81548173ffffffffffffffffffffffffffffffffffffffff021916908373ffffffffffffffffffffffffffffffffffffffff1602179055508581600301819055508481600401819055506000816005018190555060018160060160006101000a81548160ff02191690831515021790555060005b845181101561120c5781600701604051806080016040528087848151811061111557611114611e59565b5b6020026020010151815260200186848151811061113557611134611e59565b5b602002602001015181526020016040518060200160405280600081525081526020016000600281111561116b5761116a61187e565b5b815250908060018154018082558091505060019003906000526020600020906004020160009091909190915060008201518160000190816111ac91906120c6565b506020820151816001015560408201518160020190816111cc91906120c6565b5060608201518160030160006101000a81548160ff021916908360028111156111f8576111f761187e565b5b0217905550505080806001019150506110ea565b506002547fc0c54fed07481d0998e1446b2c13759606bf4f26b78306307413ac4c4309aa8289896040516112419291906127a9565b60405180910390a26002547f8f08bb82e67c398d34bbbcadfbba894d0ed09291e67de0a2bc0188564a1b0917878760405161127d9291906127d9565b60405180910390a25050505050505050565b600073ffffffffffffffffffffffffffffffffffffffff82169050919050565b60006112ba8261128f565b9050919050565b6112ca816112af565b82525050565b6000819050919050565b6112e3816112d0565b82525050565b60006040820190506112fe60008301856112c1565b61130b60208301846112da565b9392505050565b6000604051905090565b600080fd5b600080fd5b61132f816112d0565b811461133a57600080fd5b50565b60008135905061134c81611326565b92915050565b6000602082840312156113685761136761131c565b5b60006113768482850161133d565b91505092915050565b600081519050919050565b600082825260208201905092915050565b60005b838110156113b957808201518184015260208101905061139e565b60008484015250505050565b6000601f19601f8301169050919050565b60006113e18261137f565b6113eb818561138a565b93506113fb81856020860161139b565b611404816113c5565b840191505092915050565b600061141a8261128f565b9050919050565b61142a8161140f565b82525050565b60008115159050919050565b61144581611430565b82525050565b600060e082019050611460600083018a6112da565b818103602083015261147281896113d6565b90506114816040830188611421565b61148e60608301876112da565b61149b60808301866112da565b6114a860a08301856112da565b6114b560c083018461143c565b98975050505050505050565b60006020820190506114d660008301846112da565b92915050565b600080fd5b600080fd5b7f4e487b7100000000000000000000000000000000000000000000000000000000600052604160045260246000fd5b61151e826113c5565b810181811067ffffffffffffffff8211171561153d5761153c6114e6565b5b80604052505050565b6000611550611312565b905061155c8282611515565b919050565b600067ffffffffffffffff82111561157c5761157b6114e6565b5b611585826113c5565b9050602081019050919050565b82818337600083830152505050565b60006115b46115af84611561565b611546565b9050828152602081018484840111156115d0576115cf6114e1565b5b6115db848285611592565b509392505050565b600082601f8301126115f8576115f76114dc565b5b81356116088482602086016115a1565b91505092915050565b600080604083850312156116285761162761131c565b5b60006116368582860161133d565b925050602083013567ffffffffffffffff81111561165757611656611321565b5b611663858286016115e3565b9150509250929050565b600060208201905061168260008301846112c1565b92915050565b600081519050919050565b600082825260208201905092915050565b6000819050602082019050919050565b600082825260208201905092915050565b60006116d08261137f565b6116da81856116b4565b93506116ea81856020860161139b565b6116f3816113c5565b840191505092915050565b600061170a83836116c5565b905092915050565b6000602082019050919050565b600061172a82611688565b6117348185611693565b935083602082028501611746856116a4565b8060005b85811015611782578484038952815161176385826116fe565b945061176e83611712565b925060208a0199505060018101905061174a565b50829750879550505050505092915050565b600081519050919050565b600082825260208201905092915050565b6000819050602082019050919050565b6117c9816112d0565b82525050565b60006117db83836117c0565b60208301905092915050565b6000602082019050919050565b60006117ff82611794565b611809818561179f565b9350611814836117b0565b8060005b8381101561184557815161182c88826117cf565b9750611837836117e7565b925050600181019050611818565b5085935050505092915050565b600081519050919050565b600082825260208201905092915050565b6000819050602082019050919050565b7f4e487b7100000000000000000000000000000000000000000000000000000000600052602160045260246000fd5b600381106118be576118bd61187e565b5b50565b60008190506118cf826118ad565b919050565b60006118df826118c1565b9050919050565b6118ef816118d4565b82525050565b600061190183836118e6565b60208301905092915050565b6000602082019050919050565b600061192582611852565b61192f818561185d565b935061193a8361186e565b8060005b8381101561196b57815161195288826118f5565b975061195d8361190d565b92505060018101905061193e565b5085935050505092915050565b60006080820190508181036000830152611992818761171f565b905081810360208301526119a681866117f4565b905081810360408301526119ba818561171f565b905081810360608301526119ce818461191a565b905095945050505050565b6119e28161140f565b81146119ed57600080fd5b50565b6000813590506119ff816119d9565b92915050565b600067ffffffffffffffff821115611a2057611a1f6114e6565b5b602082029050602081019050919050565b600080fd5b6000611a49611a4484611a05565b611546565b90508083825260208201905060208402830185811115611a6c57611a6b611a31565b5b835b81811015611ab357803567ffffffffffffffff811115611a9157611a906114dc565b5b808601611a9e89826115e3565b85526020850194505050602081019050611a6e565b5050509392505050565b600082601f830112611ad257611ad16114dc565b5b8135611ae2848260208601611a36565b91505092915050565b600067ffffffffffffffff821115611b0657611b056114e6565b5b602082029050602081019050919050565b6000611b2a611b2584611aeb565b611546565b90508083825260208201905060208402830185811115611b4d57611b4c611a31565b5b835b81811015611b765780611b62888261133d565b845260208401935050602081019050611b4f565b5050509392505050565b600082601f830112611b9557611b946114dc565b5b8135611ba5848260208601611b17565b91505092915050565b60008060008060008060c08789031215611bcb57611bca61131c565b5b600087013567ffffffffffffffff811115611be957611be8611321565b5b611bf589828a016115e3565b9650506020611c0689828a016119f0565b9550506040611c1789828a0161133d565b9450506060611c2889828a0161133d565b935050608087013567ffffffffffffffff811115611c4957611c48611321565b5b611c5589828a01611abd565b92505060a087013567ffffffffffffffff811115611c7657611c75611321565b5b611c8289828a01611b80565b9150509295509295509295565b7f4e487b7100000000000000000000000000000000000000000000000000000000600052602260045260246000fd5b60006002820490506001821680611cd657607f821691505b602082108103611ce957611ce8611c8f565b5b50919050565b7f50726f6a65637420646f6573206e6f742065786973742e000000000000000000600082015250565b6000611d2560178361138a565b9150611d3082611cef565b602082019050919050565b60006020820190508181036000830152611d5481611d18565b9050919050565b7f4f6e6c792074686520636f6e74726163746f722063616e207375626d6974207060008201527f726f6f662e000000000000000000000000000000000000000000000000000000602082015250565b6000611db760258361138a565b9150611dc282611d5b565b604082019050919050565b60006020820190508181036000830152611de681611daa565b9050919050565b7f416c6c2070686173657320616c726561647920636f6d706c657465642e000000600082015250565b6000611e23601d8361138a565b9150611e2e82611ded565b602082019050919050565b60006020820190508181036000830152611e5281611e16565b9050919050565b7f4e487b7100000000000000000000000000000000000000000000000000000000600052603260045260246000fd5b7f50726f6f6620616c7265616479207375626d697474656420666f72207468697360008201527f2070686173652e00000000000000000000000000000000000000000000000000602082015250565b6000611ee460278361138a565b9150611eef82611e88565b604082019050919050565b60006020820190508181036000830152611f1381611ed7565b9050919050565b60008190508160005260206000209050919050565b60006020601f8301049050919050565b600082821b905092915050565b600060088302611f7c7fffffffffffffffffffffffffffffffffffffffffffffffffffffffffffffffff82611f3f565b611f868683611f3f565b95508019841693508086168417925050509392505050565b6000819050919050565b6000611fc3611fbe611fb9846112d0565b611f9e565b6112d0565b9050919050565b6000819050919050565b611fdd83611fa8565b611ff1611fe982611fca565b848454611f4c565b825550505050565b600090565b612006611ff9565b612011818484611fd4565b505050565b5b818110156120355761202a600082611ffe565b600181019050612017565b5050565b601f82111561207a5761204b81611f1a565b61205484611f2f565b81016020851015612063578190505b61207761206f85611f2f565b830182612016565b50505b505050565b600082821c905092915050565b600061209d6000198460080261207f565b1980831691505092915050565b60006120b6838361208c565b9150826002028217905092915050565b6120cf8261137f565b67ffffffffffffffff8111156120e8576120e76114e6565b5b6120f28254611cbe565b6120fd828285612039565b600060209050601f831160018114612130576000841561211e578287015190505b61212885826120aa565b865550612190565b601f19841661213e86611f1a565b60005b8281101561216657848901518255600182019150602085019450602081019050612141565b86831015612183578489015161217f601f89168261208c565b8355505b6001600288020188555050505b505050505050565b60006040820190506121ad60008301856112da565b81810360208301526121bf81846113d6565b90509392505050565b7f4e6f7420617574686f72697a65642e204f6e6c79206f776e65722063616e206460008201527f6f20746869732e00000000000000000000000000000000000000000000000000602082015250565b600061222460278361138a565b915061222f826121c8565b604082019050919050565b6000602082019050818103600083015261225381612217565b9050919050565b7f5265656e7472616e742063616c6c2e0000000000000000000000000000000000600082015250565b6000612290600f8361138a565b915061229b8261225a565b602082019050919050565b600060208201905081810360008301526122bf81612283565b9050919050565b7f4e6f2070726f6f66207375626d697474656420666f722074686973207068617360008201527f65207965742e0000000000000000000000000000000000000000000000000000602082015250565b600061232260268361138a565b915061232d826122c6565b604082019050919050565b6000602082019050818103600083015261235181612315565b9050919050565b7f496e73756666696369656e7420636f6e74726163742062616c616e63652e0000600082015250565b600061238e601e8361138a565b915061239982612358565b602082019050919050565b600060208201905081810360008301526123bd81612381565b9050919050565b7f4e487b7100000000000000000000000000000000000000000000000000000000600052601160045260246000fd5b60006123fe826112d0565b91507fffffffffffffffffffffffffffffffffffffffffffffffffffffffffffffffff82036124305761242f6123c4565b5b600182019050919050565b600081905092915050565b50565b600061245660008361243b565b915061246182612446565b600082019050919050565b600061247782612449565b9150819050919050565b7f5472616e73666572206661696c65642e00000000000000000000000000000000600082015250565b60006124b760108361138a565b91506124c282612481565b602082019050919050565b600060208201905081810360008301526124e6816124aa565b9050919050565b60006125086125036124fe8461128f565b611f9e565b61128f565b9050919050565b600061251a826124ed565b9050919050565b600061252c8261250f565b9050919050565b61253c81612521565b82525050565b600060608201905061255760008301866112da565b61256460208301856112da565b6125716040830184612533565b949350505050565b7f5068617365206e616d657320616e642062756467657473206d757374206d617460008201527f63682e0000000000000000000000000000000000000000000000000000000000602082015250565b60006125d560238361138a565b91506125e082612579565b604082019050919050565b60006020820190508181036000830152612604816125c8565b9050919050565b7f4d7573742068617665206174206c65617374206f6e652070686173652e000000600082015250565b6000612641601d8361138a565b915061264c8261260b565b602082019050919050565b6000602082019050818103600083015261267081612634565b9050919050565b7f5374617274206d757374206265206265666f726520656e642e00000000000000600082015250565b60006126ad60198361138a565b91506126b882612677565b602082019050919050565b600060208201905081810360008301526126dc816126a0565b9050919050565b60006126ee826112d0565b91506126f9836112d0565b9250828201905080821115612711576127106123c4565b5b92915050565b7f4554482073656e74206d75737420657175616c20746f74616c2070686173652060008201527f627564676574732e000000000000000000000000000000000000000000000000602082015250565b600061277360288361138a565b915061277e82612717565b604082019050919050565b600060208201905081810360008301526127a281612766565b9050919050565b600060408201905081810360008301526127c381856113d6565b90506127d26020830184612533565b9392505050565b60006040820190506127ee60008301856112da565b6127fb60208301846112da565b939250505056fea264697066735822122044966fba71a85403e77ea2650f25a034333423f65d1ab93988921045afda15c664736f6c634300081c0033",
  "linkReferences": {},
  "deployedLinkReferences": {}
}