{
  "_format": "hh-sol-artifact-1",
  "contractName": "Budget",
  "sourceName": "contracts/Budget.sol",
  "abi": [
    {
      "inputs": [],
      "stateMutability": "nonpayable",
      "type": "constructor"
    },
    {
      "anonymous": false,
      "inputs": [
        {
          "indexed": false,
          "internalType": "address",
          "name": "from",
          "type": "address"
        },
        {
          "indexed": false,
          "internalType": "uint256",
          "name": "amount",
          "type": "uint256"
        }
      ],
      "name": "FundsReceived",
      "type": "event"
    },
    {
      "anonymous": false,
      "inputs": [
        {
          "indexed": false,
          "internalType": "address",
          "name": "to",
          "type": "address"
        },
        {
          "indexed": false,
          "internalType": "uint256",
          "name": "amount",
          "type": "uint256"
        }
      ],
      "name": "FundsReleased",
      "type": "event"
    },
    {
      "inputs": [],
      "name": "getBalance",
      "outputs": [
        {
          "internalType": "uint256",
          "name": "",
          "type": "uint256"
        }
      ],
      "stateMutability": "view",
      "type": "function"
    },
    {
      "inputs": [],
      "name": "owner",
      "outputs": [
        {
          "internalType": "address",
          "name": "",
          "type": "address"
        }
      ],
      "stateMutability": "view",
      "type": "function"
    },
    {
      "inputs": [
        {
          "internalType": "address payable",
          "name": "_to",
          "type": "address"
        },
        {
          "internalType": "uint256",
          "name": "_amount",
          "type": "uint256"
        }
      ],
      "name": "releaseFunds",
      "outputs": [],
      "stateMutability": "nonpayable",
      "type": "function"
    },
    {
      "stateMutability": "payable",
      "type": "receive"
    }
  ],
  "bytecode": "0x6080604052348015600f57600080fd5b50336000806101000a81548173ffffffffffffffffffffffffffffffffffffffff021916908373ffffffffffffffffffffffffffffffffffffffff1602179055506105b28061005f6000396000f3fe6080604052600436106100385760003560e01c806312065fe01461007d5780638da5cb5b146100a8578063d6e982e5146100d357610078565b36610078577f8e47b87b0ef542cdfa1659c551d88bad38aa7f452d2bbb349ab7530dfec8be8f333460405161006e9291906102d7565b60405180910390a1005b600080fd5b34801561008957600080fd5b506100926100fc565b60405161009f9190610300565b60405180910390f35b3480156100b457600080fd5b506100bd610104565b6040516100ca919061031b565b60405180910390f35b3480156100df57600080fd5b506100fa60048036038101906100f591906103a5565b610128565b005b600047905090565b60008054906101000a900473ffffffffffffffffffffffffffffffffffffffff1681565b60008054906101000a900473ffffffffffffffffffffffffffffffffffffffff1673ffffffffffffffffffffffffffffffffffffffff163373ffffffffffffffffffffffffffffffffffffffff16146101b6576040517f08c379a00000000000000000000000000000000000000000000000000000000081526004016101ad90610468565b60405180910390fd5b804710156101f9576040517f08c379a00000000000000000000000000000000000000000000000000000000081526004016101f0906104d4565b60405180910390fd5b8173ffffffffffffffffffffffffffffffffffffffff166108fc829081150290604051600060405180830381858888f1935050505015801561023f573d6000803e3d6000fd5b507f221c08a06b07a64803b3787861a3f276212fcccb51c2e6234077a9b8cb13047a8282604051610271929190610553565b60405180910390a15050565b600073ffffffffffffffffffffffffffffffffffffffff82169050919050565b60006102a88261027d565b9050919050565b6102b88161029d565b82525050565b6000819050919050565b6102d1816102be565b82525050565b60006040820190506102ec60008301856102af565b6102f960208301846102c8565b9392505050565b600060208201905061031560008301846102c8565b92915050565b600060208201905061033060008301846102af565b92915050565b600080fd5b60006103468261027d565b9050919050565b6103568161033b565b811461036157600080fd5b50565b6000813590506103738161034d565b92915050565b610382816102be565b811461038d57600080fd5b50565b60008135905061039f81610379565b92915050565b600080604083850312156103bc576103bb610336565b5b60006103ca85828601610364565b92505060206103db85828601610390565b9150509250929050565b600082825260208201905092915050565b7f4e6f7420617574686f72697a65642e204f6e6c79206f776e65722063616e206460008201527f6f20746869732e00000000000000000000000000000000000000000000000000602082015250565b60006104526027836103e5565b915061045d826103f6565b604082019050919050565b6000602082019050818103600083015261048181610445565b9050919050565b7f496e73756666696369656e742066756e647320696e206275646765742e000000600082015250565b60006104be601d836103e5565b91506104c982610488565b602082019050919050565b600060208201905081810360008301526104ed816104b1565b9050919050565b6000819050919050565b600061051961051461050f8461027d565b6104f4565b61027d565b9050919050565b600061052b826104fe565b9050919050565b600061053d82610520565b9050919050565b61054d81610532565b82525050565b60006040820190506105686000830185610544565b61057560208301846102c8565b939250505056fea26469706673582212203a65b715b5c2a7400b2137743725f45dbc8f69fb4d86bff1b5742270c55a1a0664736f6c634300081c0033",
  "linkReferences": {},
  "deployedLinkReferences": {}
}