{
  "_format": "hh-sol-artifact-1",
  "contractName": "Voting",
  "sourceName": "contracts/Voting.sol",
  "abi": [
    {
      "inputs": [],
      "stateMutability": "nonpayable",
      "type": "constructor"
    },
    {
      "anonymous": false,
      "inputs": [
        {
          "indexed": true,
          "internalType": "uint256",
          "name": "_candidateId",
          "type": "uint256"
        }
      ],
      "name": "VotedEvent",
      "type": "event"
    },
    {
      "inputs": [
        {
          "internalType": "uint256",
          "name": "",
          "type": "uint256"
        }
      ],
      "name": "candidates",
      "outputs": [
        {
          "internalType": "uint256",
          "name": "id",
          "type": "uint256"
        },
        {
          "internalType": "string",
          "name": "name",
          "type": "string"
        },
        {
          "internalType": "uint256",
          "name": "voteCount",
          "type": "uint256"
        }
      ],
      "stateMutability": "view",
      "type": "function"
    },
    {
      "inputs": [],
      "name": "candidatesCount",
      "outputs": [
        {
          "internalType": "uint256",
          "name": "",
          "type": "uint256"
        }
      ],
      "stateMutability": "view",
      "type": "function"
    },
    {
      "inputs": [
        {
          "internalType": "address",
          "name": "",
          "type": "address"
        }
      ],
      "name": "hasVoted",
      "outputs": [
        {
          "internalType": "bool",
          "name": "",
          "type": "bool"
        }
      ],
      "stateMutability": "view",
      "type": "function"
    },
    {
      "inputs": [
        {
          "internalType": "uint256",
          "name": "_candidateId",
          "type": "uint256"
        }
      ],
      "name": "vote",
      "outputs": [],
      "stateMutability": "nonpayable",
      "type": "function"
    }
  ],
  "bytecode": "0x608060405234801561001057600080fd5b506100556040518060400160405280600581526020017f416c69636500000000000000000000000000000000000000000000000000000081525061009e60201b60201c565b6100996040518060400160405280600381526020017f426f62000000000000000000000000000000000000000000000000000000000081525061009e60201b60201c565b6104b1565b600260008154809291906100b190610151565b9190505550604051806060016040528060025481526020018281526020016000815250600080600254815260200190815260200160002060008201518160000155602082015181600101908161010791906103df565b506040820151816002015590505050565b7f4e487b7100000000000000000000000000000000000000000000000000000000600052601160045260246000fd5b6000819050919050565b600061015c82610147565b91507fffffffffffffffffffffffffffffffffffffffffffffffffffffffffffffffff820361018e5761018d610118565b5b600182019050919050565b600081519050919050565b7f4e487b7100000000000000000000000000000000000000000000000000000000600052604160045260246000fd5b7f4e487b7100000000000000000000000000000000000000000000000000000000600052602260045260246000fd5b6000600282049050600182168061021a57607f821691505b60208210810361022d5761022c6101d3565b5b50919050565b60008190508160005260206000209050919050565b60006020601f8301049050919050565b600082821b905092915050565b6000600883026102957fffffffffffffffffffffffffffffffffffffffffffffffffffffffffffffffff82610258565b61029f8683610258565b95508019841693508086168417925050509392505050565b6000819050919050565b60006102dc6102d76102d284610147565b6102b7565b610147565b9050919050565b6000819050919050565b6102f6836102c1565b61030a610302826102e3565b848454610265565b825550505050565b600090565b61031f610312565b61032a8184846102ed565b505050565b5b8181101561034e57610343600082610317565b600181019050610330565b5050565b601f8211156103935761036481610233565b61036d84610248565b8101602085101561037c578190505b61039061038885610248565b83018261032f565b50505b505050565b600082821c905092915050565b60006103b660001984600802610398565b1980831691505092915050565b60006103cf83836103a5565b9150826002028217905092915050565b6103e882610199565b67ffffffffffffffff811115610401576104006101a4565b5b61040b8254610202565b610416828285610352565b600060209050601f8311600181146104495760008415610437578287015190505b61044185826103c3565b8655506104a9565b601f19841661045786610233565b60005b8281101561047f5784890151825560018201915060208501945060208101905061045a565b8683101561049c5784890151610498601f8916826103a5565b8355505b6001600288020188555050505b505050505050565b61075b806104c06000396000f3fe608060405234801561001057600080fd5b506004361061004c5760003560e01c80630121b93f1461005157806309eef43e1461006d5780632d35a8a21461009d5780633477ee2e146100bb575b600080fd5b61006b60048036038101906100669190610390565b6100ed565b005b6100876004803603810190610082919061041b565b61027d565b6040516100949190610463565b60405180910390f35b6100a561029d565b6040516100b2919061048d565b60405180910390f35b6100d560048036038101906100d09190610390565b6102a3565b6040516100e493929190610538565b60405180910390f35b600160003373ffffffffffffffffffffffffffffffffffffffff1673ffffffffffffffffffffffffffffffffffffffff16815260200190815260200160002060009054906101000a900460ff161561017a576040517f08c379a0000000000000000000000000000000000000000000000000000000008152600401610171906105c2565b60405180910390fd5b60008111801561018c57506002548111155b6101cb576040517f08c379a00000000000000000000000000000000000000000000000000000000081526004016101c29061062e565b60405180910390fd5b60018060003373ffffffffffffffffffffffffffffffffffffffff1673ffffffffffffffffffffffffffffffffffffffff16815260200190815260200160002060006101000a81548160ff02191690831515021790555060008082815260200190815260200160002060020160008154809291906102489061067d565b9190505550807fe447c5464cb203c1da94b4db8588d3cbf313ce4a489122f6b88e87f465b2810e60405160405180910390a250565b60016020528060005260406000206000915054906101000a900460ff1681565b60025481565b60006020528060005260406000206000915090508060000154908060010180546102cc906106f4565b80601f01602080910402602001604051908101604052809291908181526020018280546102f8906106f4565b80156103455780601f1061031a57610100808354040283529160200191610345565b820191906000526020600020905b81548152906001019060200180831161032857829003601f168201915b5050505050908060020154905083565b600080fd5b6000819050919050565b61036d8161035a565b811461037857600080fd5b50565b60008135905061038a81610364565b92915050565b6000602082840312156103a6576103a5610355565b5b60006103b48482850161037b565b91505092915050565b600073ffffffffffffffffffffffffffffffffffffffff82169050919050565b60006103e8826103bd565b9050919050565b6103f8816103dd565b811461040357600080fd5b50565b600081359050610415816103ef565b92915050565b60006020828403121561043157610430610355565b5b600061043f84828501610406565b91505092915050565b60008115159050919050565b61045d81610448565b82525050565b60006020820190506104786000830184610454565b92915050565b6104878161035a565b82525050565b60006020820190506104a2600083018461047e565b92915050565b600081519050919050565b600082825260208201905092915050565b60005b838110156104e25780820151818401526020810190506104c7565b60008484015250505050565b6000601f19601f8301169050919050565b600061050a826104a8565b61051481856104b3565b93506105248185602086016104c4565b61052d816104ee565b840191505092915050565b600060608201905061054d600083018661047e565b818103602083015261055f81856104ff565b905061056e604083018461047e565b949350505050565b7f596f75206861766520616c726561647920766f7465642e000000000000000000600082015250565b60006105ac6017836104b3565b91506105b782610576565b602082019050919050565b600060208201905081810360008301526105db8161059f565b9050919050565b7f496e76616c69642049442e000000000000000000000000000000000000000000600082015250565b6000610618600b836104b3565b9150610623826105e2565b602082019050919050565b600060208201905081810360008301526106478161060b565b9050919050565b7f4e487b7100000000000000000000000000000000000000000000000000000000600052601160045260246000fd5b60006106888261035a565b91507fffffffffffffffffffffffffffffffffffffffffffffffffffffffffffffffff82036106ba576106b961064e565b5b600182019050919050565b7f4e487b7100000000000000000000000000000000000000000000000000000000600052602260045260246000fd5b6000600282049050600182168061070c57607f821691505b60208210810361071f5761071e6106c5565b5b5091905056fea2646970667358221220fb86b21f2482c03ddfb4ed739391f59c6248f58219371cc91a11473f110d135a64736f6c634300081c0033",
  "linkReferences": {},
  "deployedLinkReferences": {}
}