{
  "_format": "hh-sol-artifact-1",
  "contractName": "Voting",
  "sourceName": "contracts/Voting.sol",
  "abi": [
    {
      "inputs": [],
      "stateMutability": "nonpayable",
      "type": "constructor"
    },
    {
      "anonymous": false,
      "inputs": [
        {
          "indexed": true,
          "internalType": "uint256",
          "name": "id",
          "type": "uint256"
        },
        {
          "indexed": false,
          "internalType": "string",
          "name": "name",
          "type": "string"
        },
        {
          "indexed": false,
          "internalType": "string",
          "name": "photoCID",
          "type": "string"
        }
      ],
      "name": "CandidateAdded",
      "type": "event"
    },
    {
      "anonymous": false,
      "inputs": [
        {
          "indexed": false,
          "internalType": "uint256",
          "name": "startTime",
          "type": "uint256"
        },
        {
          "indexed": false,
          "internalType": "uint256",
          "name": "endTime",
          "type": "uint256"
        }
      ],
      "name": "ElectionTimeSet",
      "type": "event"
    },
    {
      "anonymous": false,
      "inputs": [
        {
          "indexed": true,
          "internalType": "uint256",
          "name": "winnerId",
          "type": "uint256"
        },
        {
          "indexed": false,
          "internalType": "string",
          "name": "winnerName",
          "type": "string"
        },
        {
          "indexed": false,
          "internalType": "uint256",
          "name": "voteCount",
          "type": "uint256"
        }
      ],
      "name": "ResultsDeclared",
      "type": "event"
    },
    {
      "anonymous": false,
      "inputs": [
        {
          "indexed": true,
          "internalType": "uint256",
          "name": "candidateId",
          "type": "uint256"
        },
        {
          "indexed": true,
          "internalType": "address",
          "name": "voter",
          "type": "address"
        }
      ],
      "name": "VotedEvent",
      "type": "event"
    },
    {
      "anonymous": false,
      "inputs": [
        {
          "indexed": true,
          "internalType": "address",
          "name": "voter",
          "type": "address"
        }
      ],
      "name": "VoterApproved",
      "type": "event"
    },
    {
      "anonymous": false,
      "inputs": [
        {
          "indexed": true,
          "internalType": "address",
          "name": "voter",
          "type": "address"
        }
      ],
      "name": "VoterRejected",
      "type": "event"
    },
    {
      "anonymous": false,
      "inputs": [
        {
          "indexed": true,
          "internalType": "address",
          "name": "voter",
          "type": "address"
        },
        {
          "indexed": false,
          "internalType": "string",
          "name": "idProofCID",
          "type": "string"
        }
      ],
      "name": "VoterRequested",
      "type": "event"
    },
    {
      "inputs": [
        {
          "internalType": "string",
          "name": "_name",
          "type": "string"
        },
        {
          "internalType": "string",
          "name": "_photoCID",
          "type": "string"
        }
      ],
      "name": "addCandidate",
      "outputs": [],
      "stateMutability": "nonpayable",
      "type": "function"
    },
    {
      "inputs": [],
      "name": "admin",
      "outputs": [
        {
          "internalType": "address",
          "name": "",
          "type": "address"
        }
      ],
      "stateMutability": "view",
      "type": "function"
    },
    {
      "inputs": [
        {
          "internalType": "address",
          "name": "_voter",
          "type": "address"
        }
      ],
      "name": "approveVoter",
      "outputs": [],
      "stateMutability": "nonpayable",
      "type": "function"
    },
    {
      "inputs": [
        {
          "internalType": "uint256",
          "name": "",
          "type": "uint256"
        }
      ],
      "name": "candidates",
      "outputs": [
        {
          "internalType": "uint256",
          "name": "id",
          "type": "uint256"
        },
        {
          "internalType": "string",
          "name": "name",
          "type": "string"
        },
        {
          "internalType": "string",
          "name": "photoCID",
          "type": "string"
        },
        {
          "internalType": "uint256",
          "name": "voteCount",
          "type": "uint256"
        }
      ],
      "stateMutability": "view",
      "type": "function"
    },
    {
      "inputs": [],
      "name": "candidatesCount",
      "outputs": [
        {
          "internalType": "uint256",
          "name": "",
          "type": "uint256"
        }
      ],
      "stateMutability": "view",
      "type": "function"
    },
    {
      "inputs": [],
      "name": "declareResult",
      "outputs": [],
      "stateMutability": "nonpayable",
      "type": "function"
    },
    {
      "inputs": [],
      "name": "endTime",
      "outputs": [
        {
          "internalType": "uint256",
          "name": "",
          "type": "uint256"
        }
      ],
      "stateMutability": "view",
      "type": "function"
    },
    {
      "inputs": [],
      "name": "getPendingVoters",
      "outputs": [
        {
          "internalType": "address[]",
          "name": "",
          "type": "address[]"
        }
      ],
      "stateMutability": "view",
      "type": "function"
    },
    {
      "inputs": [],
      "name": "getWinner",
      "outputs": [
        {
          "internalType": "string",
          "name": "name",
          "type": "string"
        },
        {
          "internalType": "string",
          "name": "photoCID",
          "type": "string"
        },
        {
          "internalType": "uint256",
          "name": "voteCount",
          "type": "uint256"
        }
      ],
      "stateMutability": "view",
      "type": "function"
    },
    {
      "inputs": [
        {
          "internalType": "address",
          "name": "",
          "type": "address"
        }
      ],
      "name": "hasVoted",
      "outputs": [
        {
          "internalType": "bool",
          "name": "",
          "type": "bool"
        }
      ],
      "stateMutability": "view",
      "type": "function"
    },
    {
      "inputs": [
        {
          "internalType": "uint256",
          "name": "",
          "type": "uint256"
        }
      ],
      "name": "pendingVoters",
      "outputs": [
        {
          "internalType": "address",
          "name": "",
          "type": "address"
        }
      ],
      "stateMutability": "view",
      "type": "function"
    },
    {
      "inputs": [
        {
          "internalType": "address",
          "name": "_voter",
          "type": "address"
        }
      ],
      "name": "rejectVoter",
      "outputs": [],
      "stateMutability": "nonpayable",
      "type": "function"
    },
    {
      "inputs": [
        {
          "internalType": "string",
          "name": "_idProofCID",
          "type": "string"
        }
      ],
      "name": "requestVoterRegistration",
      "outputs": [],
      "stateMutability": "nonpayable",
      "type": "function"
    },
    {
      "inputs": [],
      "name": "resultsDeclared",
      "outputs": [
        {
          "internalType": "bool",
          "name": "",
          "type": "bool"
        }
      ],
      "stateMutability": "view",
      "type": "function"
    },
    {
      "inputs": [
        {
          "internalType": "uint256",
          "name": "_startTime",
          "type": "uint256"
        },
        {
          "internalType": "uint256",
          "name": "_endTime",
          "type": "uint256"
        }
      ],
      "name": "setElectionTime",
      "outputs": [],
      "stateMutability": "nonpayable",
      "type": "function"
    },
    {
      "inputs": [],
      "name": "startTime",
      "outputs": [
        {
          "internalType": "uint256",
          "name": "",
          "type": "uint256"
        }
      ],
      "stateMutability": "view",
      "type": "function"
    },
    {
      "inputs": [
        {
          "internalType": "uint256",
          "name": "_candidateId",
          "type": "uint256"
        }
      ],
      "name": "vote",
      "outputs": [],
      "stateMutability": "nonpayable",
      "type": "function"
    },
    {
      "inputs": [
        {
          "internalType": "address",
          "name": "",
          "type": "address"
        }
      ],
      "name": "voterIdCID",
      "outputs": [
        {
          "internalType": "string",
          "name": "",
          "type": "string"
        }
      ],
      "stateMutability": "view",
      "type": "function"
    },
    {
      "inputs": [
        {
          "internalType": "address",
          "name": "",
          "type": "address"
        }
      ],
      "name": "voterStatus",
      "outputs": [
        {
          "internalType": "enum Voting.VoterStatus",
          "name": "",
          "type": "uint8"
        }
      ],
      "stateMutability": "view",
      "type": "function"
    },
    {
      "inputs": [],
      "name": "winnerId",
      "outputs": [
        {
          "internalType": "uint256",
          "name": "",
          "type": "uint256"
        }
      ],
      "stateMutability": "view",
      "type": "function"
    }
  ],
  "bytecode": "0x6080604052348015600f57600080fd5b50336000806101000a81548173ffffffffffffffffffffffffffffffffffffffff021916908373ffffffffffffffffffffffffffffffffffffffff16021790555061283d8061005f6000396000f3fe608060405234801561001057600080fd5b506004361061012c5760003560e01c8063576cc4f2116100ad57806391e0d5931161007157806391e0d59314610334578063965473bd14610352578063c3322d0914610370578063f1335a8f1461038e578063f851a440146103aa5761012c565b8063576cc4f21461028c57806378e97925146102bc5780637b0fd3eb146102da5780638574c2961461030a5780638e7ea5b2146103145761012c565b806324a9267b116100f457806324a9267b146101d157806326541b56146102015780632d35a8a21461021d5780633197cbb61461023b5780633477ee2e146102595761012c565b80630121b93f1461013157806302c7538a1461014d57806309eef43e14610169578063119d4ddb146101995780631b04772b146101b5575b600080fd5b61014b60048036038101906101469190611710565b6103c8565b005b61016760048036038101906101629190611883565b610677565b005b610183600480360381019061017e919061192a565b610893565b6040516101909190611972565b60405180910390f35b6101b360048036038101906101ae919061192a565b6108b3565b005b6101cf60048036038101906101ca919061192a565b610aa2565b005b6101eb60048036038101906101e69190611710565b610c91565b6040516101f8919061199c565b60405180910390f35b61021b600480360381019061021691906119b7565b610cd0565b005b610225610e83565b6040516102329190611a3e565b60405180910390f35b610243610e89565b6040516102509190611a3e565b60405180910390f35b610273600480360381019061026e9190611710565b610e8f565b6040516102839493929190611ad8565b60405180910390f35b6102a660048036038101906102a1919061192a565b610fcf565b6040516102b39190611ba2565b60405180910390f35b6102c4610fef565b6040516102d19190611a3e565b60405180910390f35b6102f460048036038101906102ef919061192a565b610ff5565b6040516103019190611bbd565b60405180910390f35b610312611095565b005b61031c6112d3565b60405161032b93929190611bdf565b60405180910390f35b61033c61149e565b6040516103499190611a3e565b60405180910390f35b61035a6114a4565b6040516103679190611972565b60405180910390f35b6103786114b7565b6040516103859190611ce2565b60405180910390f35b6103a860048036038101906103a39190611d04565b611545565b005b6103b26116a2565b6040516103bf919061199c565b60405180910390f35b60015442101580156103dc57506002544211155b61041b576040517f08c379a000000000000000000000000000000000000000000000000000000000815260040161041290611d90565b60405180910390fd5b6002600381111561042f5761042e611b2b565b5b600560003373ffffffffffffffffffffffffffffffffffffffff1673ffffffffffffffffffffffffffffffffffffffff16815260200190815260200160002060009054906101000a900460ff16600381111561048e5761048d611b2b565b5b146104ce576040517f08c379a00000000000000000000000000000000000000000000000000000000081526004016104c590611dfc565b60405180910390fd5b600860003373ffffffffffffffffffffffffffffffffffffffff1673ffffffffffffffffffffffffffffffffffffffff16815260200190815260200160002060009054906101000a900460ff161561055b576040517f08c379a000000000000000000000000000000000000000000000000000000000815260040161055290611e68565b60405180910390fd5b60008111801561056d57506004548111155b6105ac576040517f08c379a00000000000000000000000000000000000000000000000000000000081526004016105a390611ed4565b60405180910390fd5b6001600860003373ffffffffffffffffffffffffffffffffffffffff1673ffffffffffffffffffffffffffffffffffffffff16815260200190815260200160002060006101000a81548160ff02191690831515021790555060036000828152602001908152602001600020600301600081548092919061062b90611f23565b91905055503373ffffffffffffffffffffffffffffffffffffffff16817fef0a8c30b864cd88d58d772c577afd36560b80a69c4eea26d684aa68cca2b1e560405160405180910390a350565b6000600381111561068b5761068a611b2b565b5b600560003373ffffffffffffffffffffffffffffffffffffffff1673ffffffffffffffffffffffffffffffffffffffff16815260200190815260200160002060009054906101000a900460ff1660038111156106ea576106e9611b2b565b5b1461072a576040517f08c379a000000000000000000000000000000000000000000000000000000000815260040161072190611fb7565b60405180910390fd5b6001600560003373ffffffffffffffffffffffffffffffffffffffff1673ffffffffffffffffffffffffffffffffffffffff16815260200190815260200160002060006101000a81548160ff0219169083600381111561078d5761078c611b2b565b5b021790555080600660003373ffffffffffffffffffffffffffffffffffffffff1673ffffffffffffffffffffffffffffffffffffffff16815260200190815260200160002090816107de91906121e3565b506007339080600181540180825580915050600190039060005260206000200160009091909190916101000a81548173ffffffffffffffffffffffffffffffffffffffff021916908373ffffffffffffffffffffffffffffffffffffffff1602179055503373ffffffffffffffffffffffffffffffffffffffff167f9ce429b3729c51a5c1c92849e7088bf7955d17c5510bf84ac6ed5513a289d113826040516108889190611bbd565b60405180910390a250565b60086020528060005260406000206000915054906101000a900460ff1681565b60008054906101000a900473ffffffffffffffffffffffffffffffffffffffff1673ffffffffffffffffffffffffffffffffffffffff163373ffffffffffffffffffffffffffffffffffffffff1614610941576040517f08c379a000000000000000000000000000000000000000000000000000000000815260040161093890612301565b60405180910390fd5b6001600381111561095557610954611b2b565b5b600560008373ffffffffffffffffffffffffffffffffffffffff1673ffffffffffffffffffffffffffffffffffffffff16815260200190815260200160002060009054906101000a900460ff1660038111156109b4576109b3611b2b565b5b146109f4576040517f08c379a00000000000000000000000000000000000000000000000000000000081526004016109eb9061236d565b60405180910390fd5b6002600560008373ffffffffffffffffffffffffffffffffffffffff1673ffffffffffffffffffffffffffffffffffffffff16815260200190815260200160002060006101000a81548160ff02191690836003811115610a5757610a56611b2b565b5b02179055508073ffffffffffffffffffffffffffffffffffffffff167f85e209912e11195144f49695f608785c8a31876f9d5d831813c396126a21b48460405160405180910390a250565b60008054906101000a900473ffffffffffffffffffffffffffffffffffffffff1673ffffffffffffffffffffffffffffffffffffffff163373ffffffffffffffffffffffffffffffffffffffff1614610b30576040517f08c379a0000000000000000000000000000000000000000000000000000000008152600401610b2790612301565b60405180910390fd5b60016003811115610b4457610b43611b2b565b5b600560008373ffffffffffffffffffffffffffffffffffffffff1673ffffffffffffffffffffffffffffffffffffffff16815260200190815260200160002060009054906101000a900460ff166003811115610ba357610ba2611b2b565b5b14610be3576040517f08c379a0000000000000000000000000000000000000000000000000000000008152600401610bda9061236d565b60405180910390fd5b6003600560008373ffffffffffffffffffffffffffffffffffffffff1673ffffffffffffffffffffffffffffffffffffffff16815260200190815260200160002060006101000a81548160ff02191690836003811115610c4657610c45611b2b565b5b02179055508073ffffffffffffffffffffffffffffffffffffffff167f6c2566d0a3f6a59ee11e0d4898e7ff28c8ca013a94e610c1aff49c1918fac67260405160405180910390a250565b60078181548110610ca157600080fd5b906000526020600020016000915054906101000a900473ffffffffffffffffffffffffffffffffffffffff1681565b60008054906101000a900473ffffffffffffffffffffffffffffffffffffffff1673ffffffffffffffffffffffffffffffffffffffff163373ffffffffffffffffffffffffffffffffffffffff1614610d5e576040517f08c379a0000000000000000000000000000000000000000000000000000000008152600401610d5590612301565b60405180910390fd5b600154421080610d7057506000600154145b610daf576040517f08c379a0000000000000000000000000000000000000000000000000000000008152600401610da6906123ff565b60405180910390fd5b60046000815480929190610dc290611f23565b9190505550604051806080016040528060045481526020018381526020018281526020016000815250600360006004548152602001908152602001600020600082015181600001556020820151816001019081610e1f91906121e3565b506040820151816002019081610e3591906121e3565b50606082015181600301559050506004547fe64f834082661dd9ed89427b87edb6270fd6dad17198b0938f0edd058914c87f8383604051610e7792919061241f565b60405180910390a25050565b60045481565b60025481565b6003602052806000526040600020600091509050806000015490806001018054610eb890612006565b80601f0160208091040260200160405190810160405280929190818152602001828054610ee490612006565b8015610f315780601f10610f0657610100808354040283529160200191610f31565b820191906000526020600020905b815481529060010190602001808311610f1457829003601f168201915b505050505090806002018054610f4690612006565b80601f0160208091040260200160405190810160405280929190818152602001828054610f7290612006565b8015610fbf5780601f10610f9457610100808354040283529160200191610fbf565b820191906000526020600020905b815481529060010190602001808311610fa257829003601f168201915b5050505050908060030154905084565b60056020528060005260406000206000915054906101000a900460ff1681565b60015481565b6006602052806000526040600020600091509050805461101490612006565b80601f016020809104026020016040519081016040528092919081815260200182805461104090612006565b801561108d5780601f106110625761010080835404028352916020019161108d565b820191906000526020600020905b81548152906001019060200180831161107057829003601f168201915b505050505081565b60008054906101000a900473ffffffffffffffffffffffffffffffffffffffff1673ffffffffffffffffffffffffffffffffffffffff163373ffffffffffffffffffffffffffffffffffffffff1614611123576040517f08c379a000000000000000000000000000000000000000000000000000000000815260040161111a90612301565b60405180910390fd5b6002544211611167576040517f08c379a000000000000000000000000000000000000000000000000000000000815260040161115e906124a2565b60405180910390fd5b600960009054906101000a900460ff16156111b7576040517f08c379a00000000000000000000000000000000000000000000000000000000081526004016111ae9061250e565b60405180910390fd5b6000600454116111fc576040517f08c379a00000000000000000000000000000000000000000000000000000000081526004016111f39061257a565b60405180910390fd5b6000806000600190505b600454811161125d57826003600083815260200190815260200160002060030154111561124a57600360008281526020019081526020016000206003015492508091505b808061125590611f23565b915050611206565b506001600960006101000a81548160ff02191690831515021790555080600a81905550807f9e7524d945d09edf534402460d225099fecc3c6caf4b5fad0c54f133040510d460036000848152602001908152602001600020600101846040516112c792919061261e565b60405180910390a25050565b6060806000600960009054906101000a900460ff16611327576040517f08c379a000000000000000000000000000000000000000000000000000000000815260040161131e906126c0565b60405180910390fd5b600060036000600a5481526020019081526020016000206040518060800160405290816000820154815260200160018201805461136390612006565b80601f016020809104026020016040519081016040528092919081815260200182805461138f90612006565b80156113dc5780601f106113b1576101008083540402835291602001916113dc565b820191906000526020600020905b8154815290600101906020018083116113bf57829003601f168201915b505050505081526020016002820180546113f590612006565b80601f016020809104026020016040519081016040528092919081815260200182805461142190612006565b801561146e5780601f106114435761010080835404028352916020019161146e565b820191906000526020600020905b81548152906001019060200180831161145157829003601f168201915b50505050508152602001600382015481525050905080602001518160400151826060015193509350935050909192565b600a5481565b600960009054906101000a900460ff1681565b6060600780548060200260200160405190810160405280929190818152602001828054801561153b57602002820191906000526020600020905b8160009054906101000a900473ffffffffffffffffffffffffffffffffffffffff1673ffffffffffffffffffffffffffffffffffffffff16815260200190600101908083116114f1575b5050505050905090565b60008054906101000a900473ffffffffffffffffffffffffffffffffffffffff1673ffffffffffffffffffffffffffffffffffffffff163373ffffffffffffffffffffffffffffffffffffffff16146115d3576040517f08c379a00000000000000000000000000000000000000000000000000000000081526004016115ca90612301565b60405180910390fd5b808210611615576040517f08c379a000000000000000000000000000000000000000000000000000000000815260040161160c9061272c565b60405180910390fd5b428211611657576040517f08c379a000000000000000000000000000000000000000000000000000000000815260040161164e906127be565b60405180910390fd5b81600181905550806002819055507fc6f7790e0b8f3285b87267944c9d67a1c50937865beadf1e8d960712763db32882826040516116969291906127de565b60405180910390a15050565b60008054906101000a900473ffffffffffffffffffffffffffffffffffffffff1681565b6000604051905090565b600080fd5b600080fd5b6000819050919050565b6116ed816116da565b81146116f857600080fd5b50565b60008135905061170a816116e4565b92915050565b600060208284031215611726576117256116d0565b5b6000611734848285016116fb565b91505092915050565b600080fd5b600080fd5b6000601f19601f8301169050919050565b7f4e487b7100000000000000000000000000000000000000000000000000000000600052604160045260246000fd5b61179082611747565b810181811067ffffffffffffffff821117156117af576117ae611758565b5b80604052505050565b60006117c26116c6565b90506117ce8282611787565b919050565b600067ffffffffffffffff8211156117ee576117ed611758565b5b6117f782611747565b9050602081019050919050565b82818337600083830152505050565b6000611826611821846117d3565b6117b8565b90508281526020810184848401111561184257611841611742565b5b61184d848285611804565b509392505050565b600082601f83011261186a5761186961173d565b5b813561187a848260208601611813565b91505092915050565b600060208284031215611899576118986116d0565b5b600082013567ffffffffffffffff8111156118b7576118b66116d5565b5b6118c384828501611855565b91505092915050565b600073ffffffffffffffffffffffffffffffffffffffff82169050919050565b60006118f7826118cc565b9050919050565b611907816118ec565b811461191257600080fd5b50565b600081359050611924816118fe565b92915050565b6000602082840312156119405761193f6116d0565b5b600061194e84828501611915565b91505092915050565b60008115159050919050565b61196c81611957565b82525050565b60006020820190506119876000830184611963565b92915050565b611996816118ec565b82525050565b60006020820190506119b1600083018461198d565b92915050565b600080604083850312156119ce576119cd6116d0565b5b600083013567ffffffffffffffff8111156119ec576119eb6116d5565b5b6119f885828601611855565b925050602083013567ffffffffffffffff811115611a1957611a186116d5565b5b611a2585828601611855565b9150509250929050565b611a38816116da565b82525050565b6000602082019050611a536000830184611a2f565b92915050565b600081519050919050565b600082825260208201905092915050565b60005b83811015611a93578082015181840152602081019050611a78565b60008484015250505050565b6000611aaa82611a59565b611ab48185611a64565b9350611ac4818560208601611a75565b611acd81611747565b840191505092915050565b6000608082019050611aed6000830187611a2f565b8181036020830152611aff8186611a9f565b90508181036040830152611b138185611a9f565b9050611b226060830184611a2f565b95945050505050565b7f4e487b7100000000000000000000000000000000000000000000000000000000600052602160045260246000fd5b60048110611b6b57611b6a611b2b565b5b50565b6000819050611b7c82611b5a565b919050565b6000611b8c82611b6e565b9050919050565b611b9c81611b81565b82525050565b6000602082019050611bb76000830184611b93565b92915050565b60006020820190508181036000830152611bd78184611a9f565b905092915050565b60006060820190508181036000830152611bf98186611a9f565b90508181036020830152611c0d8185611a9f565b9050611c1c6040830184611a2f565b949350505050565b600081519050919050565b600082825260208201905092915050565b6000819050602082019050919050565b611c59816118ec565b82525050565b6000611c6b8383611c50565b60208301905092915050565b6000602082019050919050565b6000611c8f82611c24565b611c998185611c2f565b9350611ca483611c40565b8060005b83811015611cd5578151611cbc8882611c5f565b9750611cc783611c77565b925050600181019050611ca8565b5085935050505092915050565b60006020820190508181036000830152611cfc8184611c84565b905092915050565b60008060408385031215611d1b57611d1a6116d0565b5b6000611d29858286016116fb565b9250506020611d3a858286016116fb565b9150509250929050565b7f456c656374696f6e206973206e6f74206f70656e2e0000000000000000000000600082015250565b6000611d7a601583611a64565b9150611d8582611d44565b602082019050919050565b60006020820190508181036000830152611da981611d6d565b9050919050565b7f596f7520617265206e6f74206120766572696669656420766f7465722e000000600082015250565b6000611de6601d83611a64565b9150611df182611db0565b602082019050919050565b60006020820190508181036000830152611e1581611dd9565b9050919050565b7f596f75206861766520616c726561647920766f7465642e000000000000000000600082015250565b6000611e52601783611a64565b9150611e5d82611e1c565b602082019050919050565b60006020820190508181036000830152611e8181611e45565b9050919050565b7f496e76616c69642063616e6469646174652049442e0000000000000000000000600082015250565b6000611ebe601583611a64565b9150611ec982611e88565b602082019050919050565b60006020820190508181036000830152611eed81611eb1565b9050919050565b7f4e487b7100000000000000000000000000000000000000000000000000000000600052601160045260246000fd5b6000611f2e826116da565b91507fffffffffffffffffffffffffffffffffffffffffffffffffffffffffffffffff8203611f6057611f5f611ef4565b5b600182019050919050565b7f416c72656164792072656769737465726564206f722070656e64696e672e0000600082015250565b6000611fa1601e83611a64565b9150611fac82611f6b565b602082019050919050565b60006020820190508181036000830152611fd081611f94565b9050919050565b7f4e487b7100000000000000000000000000000000000000000000000000000000600052602260045260246000fd5b6000600282049050600182168061201e57607f821691505b60208210810361203157612030611fd7565b5b50919050565b60008190508160005260206000209050919050565b60006020601f8301049050919050565b600082821b905092915050565b6000600883026120997fffffffffffffffffffffffffffffffffffffffffffffffffffffffffffffffff8261205c565b6120a3868361205c565b95508019841693508086168417925050509392505050565b6000819050919050565b60006120e06120db6120d6846116da565b6120bb565b6116da565b9050919050565b6000819050919050565b6120fa836120c5565b61210e612106826120e7565b848454612069565b825550505050565b600090565b612123612116565b61212e8184846120f1565b505050565b5b818110156121525761214760008261211b565b600181019050612134565b5050565b601f8211156121975761216881612037565b6121718461204c565b81016020851015612180578190505b61219461218c8561204c565b830182612133565b50505b505050565b600082821c905092915050565b60006121ba6000198460080261219c565b1980831691505092915050565b60006121d383836121a9565b9150826002028217905092915050565b6121ec82611a59565b67ffffffffffffffff81111561220557612204611758565b5b61220f8254612006565b61221a828285612156565b600060209050601f83116001811461224d576000841561223b578287015190505b61224585826121c7565b8655506122ad565b601f19841661225b86612037565b60005b828110156122835784890151825560018201915060208501945060208101905061225e565b868310156122a0578489015161229c601f8916826121a9565b8355505b6001600288020188555050505b505050505050565b7f4f6e6c792061646d696e2063616e20646f20746869732e000000000000000000600082015250565b60006122eb601783611a64565b91506122f6826122b5565b602082019050919050565b6000602082019050818103600083015261231a816122de565b9050919050565b7f566f746572206973206e6f742070656e64696e672e0000000000000000000000600082015250565b6000612357601583611a64565b915061236282612321565b602082019050919050565b600060208201905081810360008301526123868161234a565b9050919050565b7f43616e6e6f74206164642063616e6469646174657320616674657220656c656360008201527f74696f6e2068617320737461727465642e000000000000000000000000000000602082015250565b60006123e9603183611a64565b91506123f48261238d565b604082019050919050565b60006020820190508181036000830152612418816123dc565b9050919050565b600060408201905081810360008301526124398185611a9f565b9050818103602083015261244d8184611a9f565b90509392505050565b7f456c656374696f6e20686173206e6f7420656e646564207965742e0000000000600082015250565b600061248c601b83611a64565b915061249782612456565b602082019050919050565b600060208201905081810360008301526124bb8161247f565b9050919050565b7f526573756c747320616c7265616479206465636c617265642e00000000000000600082015250565b60006124f8601983611a64565b9150612503826124c2565b602082019050919050565b60006020820190508181036000830152612527816124eb565b9050919050565b7f4e6f2063616e646964617465732e000000000000000000000000000000000000600082015250565b6000612564600e83611a64565b915061256f8261252e565b602082019050919050565b6000602082019050818103600083015261259381612557565b9050919050565b600081546125a781612006565b6125b18186611a64565b945060018216600081146125cc57600181146125e257612615565b60ff198316865281151560200286019350612615565b6125eb85612037565b60005b8381101561260d578154818901526001820191506020810190506125ee565b808801955050505b50505092915050565b60006040820190508181036000830152612638818561259a565b90506126476020830184611a2f565b9392505050565b7f526573756c74732068617665206e6f74206265656e206465636c61726564207960008201527f65742e0000000000000000000000000000000000000000000000000000000000602082015250565b60006126aa602383611a64565b91506126b58261264e565b604082019050919050565b600060208201905081810360008301526126d98161269d565b9050919050565b7f5374617274206d757374206265206265666f726520656e642e00000000000000600082015250565b6000612716601983611a64565b9150612721826126e0565b602082019050919050565b6000602082019050818103600083015261274581612709565b9050919050565b7f53746172742074696d65206d75737420626520696e207468652066757475726560008201527f2e00000000000000000000000000000000000000000000000000000000000000602082015250565b60006127a8602183611a64565b91506127b38261274c565b604082019050919050565b600060208201905081810360008301526127d78161279b565b9050919050565b60006040820190506127f36000830185611a2f565b6128006020830184611a2f565b939250505056fea2646970667358221220b85296edbffba43d505a276e66a146b89393d188820e1958c84c1ef8b7947aad64736f6c634300081c0033",
  "linkReferences": {},
  "deployedLinkReferences": {}
}